{
  "_format": "hh-sol-artifact-1",
  "contractName": "WavePortal",
  "sourceName": "contracts/WavePortal.sol",
  "abi": [
    {
      "inputs": [],
      "stateMutability": "nonpayable",
      "type": "constructor"
    },
    {
      "inputs": [],
      "name": "getTotalWaves",
      "outputs": [
        {
          "internalType": "uint256",
          "name": "",
          "type": "uint256"
        }
      ],
      "stateMutability": "view",
      "type": "function"
    },
    {
      "inputs": [],
      "name": "wave",
      "outputs": [],
      "stateMutability": "nonpayable",
      "type": "function"
    },
    {
      "inputs": [
        {
          "internalType": "address",
          "name": "",
          "type": "address"
        }
      ],
      "name": "wavesPerAddress",
      "outputs": [
        {
          "internalType": "uint256",
          "name": "",
          "type": "uint256"
        }
      ],
      "stateMutability": "view",
      "type": "function"
    }
  ],
  "bytecode": "0x608060405234801561001057600080fd5b506100596040518060400160405280600b81526020017f474d2065766572796f6e6500000000000000000000000000000000000000000081525061005e60201b6102681760201c565b6101e1565b6100fa81604051602401610072919061015f565b6040516020818303038152906040527f41304fac000000000000000000000000000000000000000000000000000000007bffffffffffffffffffffffffffffffffffffffffffffffffffffffff19166020820180517bffffffffffffffffffffffffffffffffffffffffffffffffffffffff83818316178352505050506100fd60201b60201c565b50565b60008151905060006a636f6e736f6c652e6c6f679050602083016000808483855afa5050505050565b600061013182610181565b61013b818561018c565b935061014b81856020860161019d565b610154816101d0565b840191505092915050565b600060208201905081810360008301526101798184610126565b905092915050565b600081519050919050565b600082825260208201905092915050565b60005b838110156101bb5780820151818401526020810190506101a0565b838111156101ca576000848401525b50505050565b6000601f19601f8301169050919050565b6107df806101f06000396000f3fe608060405234801561001057600080fd5b50600436106100415760003560e01c80636fe15b44146100465780639a2cdc0814610050578063ee51c52a1461006e575b600080fd5b61004e61009e565b005b610058610205565b6040516100659190610656565b60405180910390f35b61008860048036038101906100839190610516565b610250565b6040516100959190610656565b60405180910390f35b60016000808282546100b0919061068d565b925050819055506100f66040518060400160405280600d81526020017f257320776173207761766564210000000000000000000000000000000000000081525033610301565b60018060003373ffffffffffffffffffffffffffffffffffffffff1673ffffffffffffffffffffffffffffffffffffffff16815260200190815260200160002054610141919061068d565b600160003373ffffffffffffffffffffffffffffffffffffffff1673ffffffffffffffffffffffffffffffffffffffff168152602001908152602001600020819055506102036040518060400160405280601b81526020017f257320686173206120746f74616c206f6620257320776176657321000000000081525033600160003373ffffffffffffffffffffffffffffffffffffffff1673ffffffffffffffffffffffffffffffffffffffff1681526020019081526020016000205461039d565b565b60006102486040518060400160405280601781526020017f7765206861766520256420746f74616c2077617665732100000000000000000081525060005461043c565b600054905090565b60016020528060005260406000206000915090505481565b6102fe8160405160240161027c9190610596565b6040516020818303038152906040527f41304fac000000000000000000000000000000000000000000000000000000007bffffffffffffffffffffffffffffffffffffffffffffffffffffffff19166020820180517bffffffffffffffffffffffffffffffffffffffffffffffffffffffff83818316178352505050506104d8565b50565b61039982826040516024016103179291906105b8565b6040516020818303038152906040527f319af333000000000000000000000000000000000000000000000000000000007bffffffffffffffffffffffffffffffffffffffffffffffffffffffff19166020820180517bffffffffffffffffffffffffffffffffffffffffffffffffffffffff83818316178352505050506104d8565b5050565b6104378383836040516024016103b5939291906105e8565b6040516020818303038152906040527f07c81217000000000000000000000000000000000000000000000000000000007bffffffffffffffffffffffffffffffffffffffffffffffffffffffff19166020820180517bffffffffffffffffffffffffffffffffffffffffffffffffffffffff83818316178352505050506104d8565b505050565b6104d48282604051602401610452929190610626565b6040516020818303038152906040527f9710a9d0000000000000000000000000000000000000000000000000000000007bffffffffffffffffffffffffffffffffffffffffffffffffffffffff19166020820180517bffffffffffffffffffffffffffffffffffffffffffffffffffffffff83818316178352505050506104d8565b5050565b60008151905060006a636f6e736f6c652e6c6f679050602083016000808483855afa5050505050565b60008135905061051081610792565b92915050565b60006020828403121561052857600080fd5b600061053684828501610501565b91505092915050565b610548816106e3565b82525050565b600061055982610671565b610563818561067c565b935061057381856020860161071f565b61057c81610781565b840191505092915050565b61059081610715565b82525050565b600060208201905081810360008301526105b0818461054e565b905092915050565b600060408201905081810360008301526105d2818561054e565b90506105e1602083018461053f565b9392505050565b60006060820190508181036000830152610602818661054e565b9050610611602083018561053f565b61061e6040830184610587565b949350505050565b60006040820190508181036000830152610640818561054e565b905061064f6020830184610587565b9392505050565b600060208201905061066b6000830184610587565b92915050565b600081519050919050565b600082825260208201905092915050565b600061069882610715565b91506106a383610715565b9250827fffffffffffffffffffffffffffffffffffffffffffffffffffffffffffffffff038211156106d8576106d7610752565b5b828201905092915050565b60006106ee826106f5565b9050919050565b600073ffffffffffffffffffffffffffffffffffffffff82169050919050565b6000819050919050565b60005b8381101561073d578082015181840152602081019050610722565b8381111561074c576000848401525b50505050565b7f4e487b7100000000000000000000000000000000000000000000000000000000600052601160045260246000fd5b6000601f19601f8301169050919050565b61079b816106e3565b81146107a657600080fd5b5056fea2646970667358221220ae1adcd1d69ac62ebe550a6b4fc049a4674f65275a60918b07158a32182684fa64736f6c63430008000033",
  "linkReferences": {},
  "deployedLinkReferences": {}
}